:100000000C945A000C9475000C9475000C947500B7
:100010000C9475000C9475000C9475000C9475008C
:100020000C9475000C9475000C9475000C9475007C
:100030000C9475000C9475000C9475000C9475006C
:100040000C946D010C9475000C9475000C94750063
:100050000C9475000C9475000C9475000C9475004C
:100060000C9475000C94750000000007000201005C
:100070000003040600000000000000000102040864
:100080001020408001020408102001020408102002
:10009000040404040404040402020202020203032E
:1000A000030303030000232629000025282B00005A
:1000B00024272A0011241FBECFEFD4E0DEBFCDBF1E
:1000C00011E0A0E0B1E0ECE2F6E002C005900D9294
:1000D000AE30B107D9F711E0AEE0B1E001C01D923A
:1000E000A231B107E1F70C9462010C940000AF92C9
:1000F000BF92CF92DF92EF92FF920F931F93CF9315
:10010000DF936C015B01CA0162E070E00E94CD02E6
:100110007B010027F7FC0095102FC0E0D0E011C054
:1001200061E08C2D0E948202C801B7010E94AA01E1
:1001300060E08C2D0E948202C801B7010E94AA01D2
:100140002196CA15DB0564F3DF91CF911F910F91C2
:10015000FF90EF90DF90CF90BF90AF90089561E057
:1001600080910C010E941B0261E080910A010E94B3
:100170001B0261E0809108010E941B0261E08091F6
:1001800006010E941B0261E0809104010E941B0293
:1001900061E0809102010E941B0261E080910001F8
:1001A0000E941B0261E0809104010E94820261E0D2
:1001B000809102010E94820244E650E063E070E018
:1001C00080910001909101010E947700089560E004
:1001D00080910C010E94820260E080910A010E94DD
:1001E000820260E0809108010E94820260E08091BA
:1001F00006010E94820268EE73E080E090E00E94B7
:10020000AA0160E080910C010E94820261E080916D
:100210000A010E94820268EE73E080E090E00E9492
:10022000AA0161E080910C010E94820260E080914D
:100230000A010E94820268EE73E080E090E00E9472
:10024000AA0160E080910C010E94820260E080912E
:100250000A010E94820268EE73E080E090E00E9452
:10026000AA0160E0809108010E94820261E0809111
:1002700006010E94820268EE73E080E090E00E9436
:10028000AA0160E0809108010E94820260E08091F2
:1002900006010E94820268EE73E080E090E00E9416
:1002A000AA0161E0809108010E94820260E08091D1
:1002B00006010E94820268EE73E080E090E00E94F6
:1002C000AA010895CFEFD4E0DEBFCDBF0E94D901CF
:1002D0000E94AF000E94E700FDCF1F920F920FB661
:1002E0000F9211248F939F93AF93BF9380910E0130
:1002F00090910F01A0911001B09111010196A11DE3
:10030000B11D80930E0190930F01A0931001B09343
:100310001101BF91AF919F918F910F900FBE0F90E0
:100320001F90189560910E0170910F01809110013E
:100330009091110127E0660F771F881F991F2A955A
:10034000D1F72DE730E040E050E00E94E002CA0122
:10035000B9010895AF92BF92CF92DF92EF92FF92D0
:100360000F931F935B016C010E9492017B018C0132
:100370000E9492016E197F09800B910B6A157B0513
:100380008C059D05A8F31F910F91FF90EF90DF90D2
:10039000CF90BF90AF900895019751F0880F991FAB
:1003A000880F991F02972FB7F8940197F1F72FBF85
:1003B0000895789410920E0110920F01109210017E
:1003C0001092110184B5826084BD84B5816084BDC2
:1003D00085B5826085BD85B5816085BDEEE6F0E0BE
:1003E000808181608083E1E8F0E0808182608083A9
:1003F000808181608083E0E8F0E08081816080839B
:10040000E1EBF0E0808184608083E0EBF0E08081CC
:1004100081608083EAE7F0E080818460808380816E
:100420008260808380818160808380818068808316
:100430001092C1000895282F3327C90184589F4F77
:10044000FC01949120573F4FF9018491882381F05A
:10045000E82FFF27E255FF4FE491FF27662329F499
:10046000808190958923808308958081892B808362
:100470000895482F5527CA0188599F4FFC012491A0
:10048000CA0184589F4FFC01949140575F4FFA0175
:1004900034913323A1F1222331F1233021F48091CF
:1004A00080008F7705C0243031F4809180008F7DEB
:1004B0008093800018C0213019F484B58F7704C070
:1004C000223021F484B58F7D84BD0DC0263021F407
:1004D0008091B0008F7705C0273029F48091B0005B
:1004E0008F7D8093B000E32FFF27EC55FF4FE49101
:1004F000FF278081892319F081E090E0089580E052
:1005000090E00895482F5527CA0188599F4FFC0154
:100510002491CA0184589F4FFC01949140575F4F2A
:10052000FA0134913323C1F1222331F1233021F434
:10053000809180008F7705C0243031F48091800055
:100540008F7D8093800018C0213019F484B58F7797
:1005500004C0223021F484B58F7D84BD0DC02630C7
:1005600021F48091B0008F7705C0273029F4809165
:10057000B0008F7D8093B000E32FFF27E755FF4F3A
:10058000E491FF27662329F4808190958923808355
:1005900008958081892B8083089597FB092E072673
:1005A0000AD077FD04D02ED006D000201AF4709522
:1005B00061957F4F0895F6F7909581959F4F089527
:1005C000A1E21A2EAA1BBB1BFD010DC0AA1FBB1F57
:1005D000EE1FFF1FA217B307E407F50720F0A21BC9
:1005E000B30BE40BF50B661F771F881F991F1A9436
:1005F00069F760957095809590959B01AC01BD0160
:10060000CF010895AA1BBB1B51E107C0AA1FBB1F46
:10061000A617B70710F0A61BB70B881F991F5A958E
:0C062000A9F780959095BC01CD010895CC
:0E062C000D000A00090006000500040003008E
:00000001FF
