:100000000C945C000C9482000C9482000C9482008E
:100010000C9482000C9482000C9482000C94820058
:100020000C9482000C9482000C9482000C94820048
:100030000C9482000C9482000C9482000C94820038
:100040000C9429070C9482000C9478090C9482007B
:100050000C9482000C9482000C9482000C94820018
:100060000C94B8020C948200B60128070000000727
:100070000002010000030406000000000000000070
:10008000010204081020408001020408102001022F
:1000900004081020040404040404040402020202FC
:1000A00002020303030303030000232629000025A3
:1000B000282B000024272A0011241FBECFEFD4E0F4
:1000C000DEBFCDBF11E0A0E0B1E0ECE2FAE102C09A
:1000D00005900D92A63CB107D9F712E0A6ECB1E06D
:1000E00001C01D92A43AB107E1F710E0CCE6D0E0E0
:1000F00004C02297FE010E94120DC836D107C9F72D
:100100000C944D060C9400000895089561E070E091
:1001100080E290E00E948A0A9093D4018093D301F8
:100120001092D2011092D10161E070E080E290E083
:100130000E948A0A9093CF018093CE011092CD0144
:100140001092CC010E94C10108950F931F938C015E
:10015000862F0E94F2018FE991E00E949B0282E7C4
:1001600091E00E949602C8010E9486001F910F91A3
:1001700008950E94A50008951F93862F142F4132E1
:1001800008F010E26091D3017091D401412F0E94D8
:10019000F6011092D2011093D1011F9108950E948F
:1001A000BC00089581E08093CB016093D001109250
:1001B000CD011092CC0108956091CE017091CF01D4
:1001C00021E04091CC018091D0010E942F02109239
:1001D000CD011092CC011092CB010895CF93DF9303
:1001E000CDB7DEB721970FB6F894DEBF0FBECDBFF7
:1001F00069838091CB018823A9F08091CC01803262
:10020000B0F48091CD01E091CE01F091CF01E80FE3
:10021000F11D60838091CD018F5F8093CD0180932C
:10022000CC0105C061E0CE0101960E946C022196CE
:100230000FB6F894DEBF0FBECDBFDF91CF9108950A
:10024000DF92EF92FF920F931F93CF93DF937C0186
:100250008B01D42E8091CB01882379F0C0E0D0E0CF
:1002600008C0F801E80FF11D6081C7010E94EE008F
:1002700021968C2FCD15A8F304C0642FC8010E94CD
:100280006C02DF91CF911F910F91FF90EF90DF9063
:100290000895FB0101900020E9F73197E61BF70B69
:1002A0004E2F0E94200108950E94EE000895809133
:1002B000D1019091D201891B992708952091D201F3
:1002C0008091D101281710F080E00AC0E091D3019D
:1002D000F091D401E20FF11D80812F5F2093D201B4
:1002E00099270895AC018091C7019091C801892B8D
:1002F00029F19091D2018091D1019817F8F020E076
:1003000030E00AC0E091D301F091D401EA0FFB1F65
:10031000A40FB51F8C918083822F2F5F3F4FA82F92
:10032000BB27A617B70774F31092D2016093D101CF
:10033000E091C701F091C801CB0109950895E091C2
:10034000C901F091CA01309729F01092CD011092A5
:10035000CC01099508957093C8016093C701089571
:100360007093CA016093C90108950895089581E0CA
:100370008093CB016093D0011092CD011092CC01FB
:1003800008951092E501449A459AE9EBF0E08081E6
:100390008E7F808380818D7F808388E48093B80006
:1003A00085E48093BC0061E070E080E290E00E9410
:1003B0008A0A9093DF018093DE0161E070E080E2C1
:1003C00090E00E948A0A9093DB018093DA0161E059
:1003D00070E080E290E00E948A0A9093D7018093B7
:1003E000D6010895880F8093BA000895CF93DF93C4
:1003F000982FEB01642F413218F081E090E02CC07F
:100400008091E5018823E1F781E08093E501109276
:10041000DD016093DC01990F91609093E40185EE1A
:100420008093BC008091E5018130E1F34091DE01D1
:100430005091DF0120E030E00AC0FF27DE01AE0F5F
:10044000BF1FE40FF51F80818C932F5F3F4FE22F7A
:10045000261798F380E090E0DF91CF910895CF9335
:10046000DF93982FEB01522F413218F081E090E09A
:1004700030C08091E5018823E1F782E08093E501B7
:100480001092DD014093DC016091DE017091DF018B
:1004900020E030E00AC0FF27DB01AE0FBF1FEC0FEA
:1004A000FD1F80818C932F5F3F4FE22F241798F31D
:1004B000892F9927880F991F8093E40185EE8093F7
:1004C000BC00552321F08091E5018230E1F380E00A
:1004D00090E0DF91CF910895CF93DF93EC016132EB
:1004E00018F081E090E01FC08091E501843019F0A0
:1004F00082E090E018C06093D8014091DA015091F9
:10050000DB0120E030E00AC0FF27DA01AE0FBF1F99
:10051000EC0FFD1F80818C932F5F3F4FE22F26173A
:1005200098F380E090E0DF91CF9108959093E101FE
:100530008093E00108959093E3018093E201089590
:10054000882311F085EC01C085E88093BC000895F4
:1005500085ED8093BC008091BC0084FDFCCF10929F
:10056000E501089585EC8093BC001092E5010895A3
:100570001F920F920FB60F9211242F933F934F9318
:100580005F936F937F938F939F93AF93BF93EF93FB
:10059000FF938091B9009927887F907080369105EC
:1005A00009F4BDC081369105CCF58832910509F476
:1005B0007BC089329105B4F48031910509F46FC094
:1005C000813191053CF4009709F412C1089709F0B4
:1005D00011C165C08831910509F466C0809709F0A2
:1005E00009C106C18034910509F485C081349105A3
:1005F00044F48033910509F4FBC0C89709F0FAC0B0
:10060000F1C08035910509F468C08835910509F479
:1006100077C08834910509F0EDC0EAC088399105AA
:1006200009F4DEC089399105ECF48837910509F4A5
:1006300076C0893791054CF48836910509F46FC06E
:100640008037910509F0D6C06AC08838910509F451
:10065000C7C08039910509F468C08038910509F058
:10066000C9C063C0803B910509F48DC0813B9105F1
:100670004CF4803A910509F46CC0883A910509F070
:10068000B9C081C0803C910509F4ACC0883C91059B
:1006900009F4A8C0883B910509F0ACC08CC08091DA
:1006A000E4018093BB0015C09091DD018091DC01D5
:1006B000981708F09DC09091DD01E091DE01F09166
:1006C000DF01E90FF11D80818093BB009F5F909354
:1006D000DD0185EC8093BC008DC08091DD01E0914F
:1006E000DE01F091DF01E80FF11D9091BB009083D6
:1006F0008F5F8093DD019091DD018091DC016DC001
:100700008091DD01E091DE01F091DF01E80FF11D44
:100710009091BB0090838F5F8093DD0169C083E07F
:100720008093E5011092D501D4CF8091D50180321C
:1007300008F056C09091D501E091D601F091D70113
:10074000E90FF11D8091BB0080839F5F9093D501DD
:10075000C0CF8091D501803248F48091D501E091DD
:10076000D601F091D701E80FF11D10826091D501FB
:100770007727E091E001F091E1018091D60190911D
:10078000D70109952FC084E08093E5011092D9012B
:100790001092D801E091E201F091E3010995809176
:1007A000D801882341F481E08093D801E091DA01F7
:1007B000F091DB0110829091D901E091DA01F09182
:1007C000DB01E90FF11D80818093BB009F5F909357
:1007D000D9019091D9018091D801981708F479CF67
:1007E00085E878CF85EC8093BC001092E50102C0CB
:1007F0000E94A802FF91EF91BF91AF919F918F91BD
:100800007F916F915F914F913F912F910F900FBE0C
:100810000F901F9018959C018091E6019091E7013F
:100820002817390789F460E0809106010E94B30817
:1008300061E0809104010E94B3088091090288233D
:1008400099F16AE171E017C0809112019091130152
:1008500028173907A9F461E0809106010E94B308C6
:1008600060E0809104010E94B3088091090288230E
:10087000D9F069E271E087E192E00E948D06089567
:1008800060E0809106010E94B30860E0809104015D
:100890000E94B30880910902882331F067E371E078
:1008A00087E192E00E948D060895CF93DF93EC01DB
:1008B0000E94DA079093ED018093EC01AA2797FD3F
:1008C000A095BA2FBC01CD010E940C0C2EE230E99C
:1008D00040EA5BE30E94640C2EE230E940E25CE314
:1008E0000E94A90B0E94EF0B7093EB016093EA0149
:1008F00080910902882359F168E471E087E192E070
:100900000E946D068091140190911501C817D907B6
:1009100019F469E571E009C08091E6019091E70161
:10092000C817D90731F461E671E087E192E00E94CF
:100930006D066091EA017091EB0187E192E00E94FF
:10094000140769E671E087E192E00E948D068091CC
:10095000EA019091EB01DF91CF910895CF93DF935E
:100960000E944E07EB019B01442737FD4095542F11
:100970008091130290911402A0911502B091160279
:10098000281739074A075B0718F1809114019091E5
:1009900015010E9455049093F3018093F201809118
:1009A000E6019091E7010E9455049093F101809334
:1009B000F001C55BDF4FCE01AA2797FDA095BA2FA6
:1009C0008093130290931402A0931502B093160221
:1009D000DF91CF910895CF93DF936091FF017091E4
:1009E000000286EC91E00E94B70162E771E086ECBC
:1009F00091E00E94490186EC91E00E94DC0065E0F4
:100A000070E080E090E00E9466076091FF017091C5
:100A1000000242E050E086EC91E00E94CF0010928C
:100A2000FC011092FB0186EC91E00E9457018823A3
:100A300089F1C091FB01D091FC01C230D10554F580
:100A400086EC91E00E945E01C350DE4F8883809166
:100A5000FB019091FC0101969093FC018093FB01B6
:100A6000E2CF64E771E087E192E00E946D06809139
:100A7000F9019091FA016AE070E00E94AC0C87E104
:100A800092E00E94140766E871E087E192E00E941C
:100A90008D0611C08091FD019927982F88272091FC
:100AA000FE01820F911D9093FA018093F9018091CC
:100AB00009028823B1F68091F9019091FA0164E668
:100AC00070E00E94AC0C8AE090E09C01629FC00143
:100AD000639F900D729F900D1124DF91CF91089527
:100AE000CF93DF93EC01809102010E94F80780917F
:100AF0000E0190910F01C817D90789F460E0809129
:100B00000A010E94B30861E0809108010E94B308C5
:100B100080910902882379F160E971E028C0809111
:100B2000100190911101C817D90789F461E08091F3
:100B30000A010E94B30860E0809108010E94B30896
:100B4000809109028823B9F064EA71E010C060E086
:100B500080910A010E94B30860E0809108010E9420
:100B6000B30880910902882331F065EB71E087E1D9
:100B700092E00E948D06DF91CF9108950E94AE040D
:100B80008091F2019091F3018A309105ACF46FEFFE
:100B900070E080910E0190910F010E94700580918C
:100BA000E6019091E7010E940B046CE271E080E0A5
:100BB00090E00E94660708950A974F9748F4809145
:100BC0001201909113010E940B0464E670E008C0CA
:100BD00080911001909111010E940B046FEF70E061
:100BE00080911001909111010E947005089540E8D4
:100BF00055E260E070E087E192E00E945A0681E0F1
:100C00000E94D707809118019091190195958795B9
:100C1000909300028093FF0186EC91E00E94860091
:100C200061E080910A010E944C0861E08091080116
:100C30000E944C0861E0809106010E944C0861E02E
:100C4000809104010E944C0861E0809102010E94A1
:100C50004C0861E0809100010E944C0861E08091A5
:100C600002010E94B30861E0809100010E94B30874
:100C700068E873E180E090E00E9466076FEF70E043
:100C800080911001909111010E94700580911001D6
:100C9000909111010E940B040895CFEFD4E0DEBFC4
:100CA000CDBF0E9495070E94F7050E94BE05FDCFAB
:100CB00008950895CB01BA010E94FE0808950E948C
:100CC0003F09992708950E94500908950E946F09CD
:100CD0000895862F0E94B6090895CB010E94BD0990
:100CE0000895862F0E94B60908950F931F938C01D3
:100CF0006DE00E9469066AE0C8010E9469061F91C2
:100D00000F9108950F931F938C010E946906C801EB
:100D10000E9475061F910F9108950F931F938C01E8
:100D20000E946D06C8010E9475061F910F910895DB
:100D30000F931F938C010E947106C8010E947506D3
:100D40001F910F910895CB01BA01332744275527EE
:100D50000E94CA0908952AE00E94A30608950F93ED
:100D60001F938C010E94AB06C8010E9475061F915B
:100D70000F910895AB01662777270E94AB0608956F
:100D80000F931F938C010E94BA06C8010E9475063A
:100D90001F910F910895EF92FF920F931F93CF939E
:100DA000DF93EC017A018B0177FF0BC06DE20E94AB
:100DB000690610950095F094E094E11CF11C011D6A
:100DC000111D2AE0B801A701CE010E94A306DF9100
:100DD000CF911F910F91FF90EF9008950F931F9364
:100DE0008C010E94CB06C8010E9475061F910F91CD
:100DF00008952115310521F4642F0E946906089594
:100E00002A30310519F40E94CB0608950E94A306EA
:100E100008950F931F938C010E94F906C8010E9448
:100E200075061F910F910895AB01662757FD6095D8
:100E3000762F0E94CB0608950F931F938C010E947A
:100E40001407C8010E9475061F910F910895089517
:100E500008951F920F920FB60F9211248F939F93B4
:100E6000AF93BF9380911C0290911D02A0911E022E
:100E7000B0911F020196A11DB11D80931C02909399
:100E80001D02A0931E02B0931F02BF91AF919F91CC
:100E90008F910F900FBE0F901F90189560911C02BC
:100EA00070911D0280911E0290911F0227E0660F33
:100EB000771F881F991F2A95D1F72DE730E040E072
:100EC00050E00E94BF0CCA01B9010895AF92BF92D1
:100ED000CF92DF92EF92FF920F931F935B016C0111
:100EE0000E944E077B018C010E944E076E197F09FC
:100EF000800B910B6A157B058C059D05A8F31F914E
:100F00000F91FF90EF90DF90CF90BF90AF9008953A
:100F1000019751F0880F991F880F991F02972FB7DB
:100F2000F8940197F1F72FBF0895789410921C025E
:100F300010921D0210921E0210921F0284B5826050
:100F400084BD84B5816084BD85B5826085BD85B56D
:100F5000816085BDEEE6F0E0808181608083E1E81C
:100F6000F0E0808182608083808181608083E0E81E
:100F7000F0E0808181608083E1EBF0E0808184603B
:100F80008083E0EBF0E0808181608083EAE7F0E03D
:100F900080818460808380818260808380818160A1
:100FA00080838081806880831092C100089580933F
:100FB000BF0108959091BF019295990F990F907C70
:100FC0008F70982B90937C0080917A00806480933E
:100FD0007A0080917A0086FDFCCF20917800809184
:100FE00079009927982F88273327822B932B0895F0
:100FF0001F93CF93DF93182FEB0161E00E944C0801
:10100000E12FFF27E459FF4F8491833051F4809101
:101010008000806880938000D0938900C09388000E
:1010200037C0843051F480918000806280938000CA
:10103000D0938B00C0938A002BC0813029F484B5F3
:10104000806884BDC7BD24C0823029F484B5806225
:1010500084BDC8BD1DC0863041F48091B000806859
:101060008093B000C093B30013C0873041F48091E7
:10107000B00080628093B000C093B40009C0C03853
:10108000D10514F460E001C061E0812F0E94B30833
:10109000DF91CF911F910895282F3327C9018058E0
:1010A0009F4FFC0194912C563F4FF9018491882366
:1010B00081F0E82FFF27EE54FF4FE491FF276623CE
:1010C00029F4808190958923808308958081892BDC
:1010D00080830895482F5527CA0184599F4FFC01EA
:1010E0002491CA0180589F4FFC0194914C565F4F48
:1010F000FA0134913323A1F1222331F1233021F479
:10110000809180008F7705C0243031F48091800079
:101110008F7D8093800018C0213019F484B58F77BB
:1011200004C0223021F484B58F7D84BD0DC02630EB
:1011300021F48091B0008F7705C0273029F4809189
:10114000B0008F7D8093B000E32FFF27E855FF4F5D
:10115000E491FF278081892319F081E090E00895D0
:1011600080E090E00895482F5527CA0184599F4F89
:10117000FC012491CA0180589F4FFC0194914C5668
:101180005F4FFA0134913323C1F1222331F123302F
:1011900021F4809180008F7705C0243031F4809154
:1011A00080008F7D8093800018C0213019F484B5B1
:1011B0008F7704C0223021F484B58F7D84BD0DC0AB
:1011C000263021F48091B0008F7705C0273029F4B4
:1011D0008091B0008F7D8093B000E32FFF27E3550F
:1011E000FF4FE491FF27662329F48081909589239E
:1011F000808308958081892B80830895EF92FF92E8
:101200000F931F937B018C0122E030E040E050E01F
:101210000E94E10C205C3D4B404F5F4FCA01B90179
:10122000A80197010E94E10C2150304040405040FD
:10123000BB2757FDBA95A52F942F832F2F5F3F4FC4
:101240004F4F5F4F8093C50021502093C400E1ECC5
:10125000F0E08081806180838081886080838081EC
:10126000806880831F910F91FF90EF900895982FD1
:101270008091C00085FFFCCF9093C60008958091B7
:101280001A0290911B022091180230911902821BC0
:10129000930B80589F4F60E870E00E94AC0C08955B
:1012A000409118025091190280911A0290911B02EC
:1012B0008417950719F48FEF9FEF0895FA01E05E08
:1012C000FD4F2081CA01019660E870E00E94AC0CDD
:1012D0009093190280931802822F99270895809184
:1012E00018029091190290931B0280931A0208959C
:1012F0001F920F920FB60F9211242F933F934F938B
:101300005F936F937F938F939F93AF93BF93EF936D
:10131000FF934091C600E0911A02F0911B02CF01A9
:10132000019660E870E00E94AC0C9C01809118026C
:10133000909119022817390739F0E05EFD4F40837C
:1013400030931B0220931A02FF91EF91BF91AF914E
:101350009F918F917F916F915F914F913F912F91CD
:101360000F900FBE0F901F90189508950E94370997
:1013700008958AE00E94B6090895CF93DF93EC01A7
:1013800003C021960E94B60988818823D1F7DF9196
:10139000CF9108952F923F924F925F926F927F92DA
:1013A0008F929F92AF92BF92CF92DF92EF92FF9275
:1013B0000F931F93CF93DF93CDB7DEB7A0970FB6F0
:1013C000F894DEBF0FBECDBF6B017C0119012A016D
:1013D000611571058105910521F480E30E94B6092C
:1013E0004BC06624772443015E010894A11CB11C04
:1013F0008501060D171DC701B601A20191010E94CA
:10140000BF0CF80160830894611C711C811C911C45
:10141000C701B601A20191010E94BF0C69017A01C6
:10142000211531054105510519F773010894E108AB
:10143000F108EA0CFB1CAA24BB24650111C0F701CA
:1014400080818A3010F4805D01C0895C0E94B609F9
:101450000894A108B108C108D1080894E108F1086E
:1014600088279927DC0186199709A809B909A816C0
:10147000B906CA06DB0619F7A0960FB6F894DEBFC8
:101480000FBECDBFDF91CF911F910F91FF90EF90D5
:10149000DF90CF90BF90AF909F908F907F906F9094
:1014A0005F904F903F902F900895EF92FF920F938F
:1014B0001F937B018C0197FF0BC08DE20E94B60940
:1014C00010950095F094E094E11CF11C011D111D94
:1014D0002AE030E040E050E0C801B7010E94CA09AC
:1014E0001F910F91FF90EF90089520E130E040E0D0
:1014F00050E00E94CA09089528E030E040E050E042
:101500000E94CA09089522E030E040E050E00E94C5
:10151000CA0908950F931F93CF93DF93869F80018D
:10152000879F100D969F100D1124C8010E94A60AD6
:10153000EC01009729F0A80160E070E00E949F0B89
:10154000CE01DF91CF911F910F910895CF93DF933B
:10155000AC01029710F442E050E0A091A202B091D9
:10156000A302FD0120E030E0C0E0D0E020C0808197
:1015700091818417950769F482819381209719F0EE
:101580009B838A8304C09093A3028093A202CF011D
:1015900032C04817590738F42115310519F0821760
:1015A000930708F49C01EF010280F381E02D30974E
:1015B000F1F62115310589F1C901841B950B0497BA
:1015C00008F4A901E0E0F0E026C08D919C9111970C
:1015D00082179307E9F44817590779F4ED018A81D6
:1015E0009B81309719F09383828304C09093A30268
:1015F0008093A202CD01029649C0841B950BFD0188
:10160000E80FF91F4193519302978D939C933AC031
:10161000FD01A281B3811097C1F68091A002909143
:10162000A102892B41F48091C2019091C301909352
:10163000A1028093A0022091C0013091C101211527
:10164000310541F42DB73EB78091C4019091C50199
:10165000281B390BE091A002F091A1022E1B3F0B39
:101660002417350788F0CA0102962817390760F059
:10167000CF01840F951F02969093A1028093A00240
:1016800041935193CF0102C080E090E0DF91CF9170
:101690000895CF93DF93009709F44EC0EC01229791
:1016A0001B821A82A091A202B091A302109711F19D
:1016B00040E050E001C0DC01AC17BD0700F1BB8386
:1016C000AA83FE0121913191E20FF31FEA17FB0774
:1016D00071F48D919C911197280F391F2E5F3F4F08
:1016E00039832883FD01828193819B838A834115FD
:1016F000510559F4D093A302C093A2021DC0FD016D
:1017000082819381AD010097B1F6FA01D383C28340
:1017100021913191E20FF31FEC17FD0769F48881E5
:101720009981280F391F2E5F3F4FFA0131832083A3
:101730008A819B8193838283DF91CF910895DC011D
:1017400040FF03C001C06D936D9342505040D8F7E5
:1017500008958CD001D06FC0552359F0992369F0BA
:101760009F575F57951B33F442F4903811F491580A
:1017700005C079C091589F3F09F4A4C0BB2711242C
:1017800062177307840730F4660F771F881FBB1F2B
:10179000915098F311D00F920FD00F920DD0A0E876
:1017A0002617370748071B0609F0A048BA2F602DF7
:1017B0007F918F9100240895A0E800246217730799
:1017C0008407B10528F0621B730B840BB1090A2A48
:1017D000660F771F881FBB1FA69581F7089597FB9B
:1017E00051D09F3738F0FEE9F91B982F872F762FBD
:1017F0006B2F05C064C09695879577956795F150D6
:10180000D0F73EF490958095709561957F4F8F4FFE
:101810009F4F0895E89403C097FB0EF4F3DFB62FB3
:10182000672F782F892F9EE9002405C09A95BB0F5A
:10183000661F771F881F11249923A1F08823B2F710
:101840009F3F59F0BB0F48F421F4002011F460FFD2
:1018500004C06F5F7F4F8F4F9F4F881F979587956D
:1018600097F908952CC09FEF80EC0895052E092666
:1018700007FA440F551F5F3F79F0AA27A51708F014
:1018800051E04795880F991F9F3F31F0BB27B9174B
:1018900008F091E0879508959F919F911124E3CFDF
:1018A00097FB880F991F9F3F31F0BB27B91708F0AE
:1018B00091E0879508959F919F911124D4CF662739
:1018C0007727882799270895D1DF01D0B4CF9923AE
:1018D00039F0552329F09F575F57950F13F49AF16C
:1018E000F1CF91589F3FE1F3629FA12D0F92BB274B
:1018F000639FA00DB11DEE27729FA00DB11DEE1FBD
:10190000AF93AA27649FB00DE11D739FB00DE11D39
:10191000AA1F6627829FB00DE11DA61F5527749F41
:10192000E00DA11D551F839FE00DA11D561F849F33
:10193000A00D511D852F7A2F6E2F1F900F90882399
:101940001AF4939539F48FCF000C111CBB1F661F3E
:10195000771F881F0128089597FB092E07260AD0B4
:1019600077FD04D049D006D000201AF47095619517
:101970007F4F0895F6F7909581959F4F0895A1E2C6
:101980001A2EAA1BBB1BFD010DC0AA1FBB1FEE1FF9
:10199000FF1FA217B307E407F50720F0A21BB30B44
:1019A000E40BF50B661F771F881F991F1A9469F7C0
:1019B00060957095809590959B01AC01BD01CF011C
:1019C000089597FB092E05260ED057FD04D0D7DFCA
:1019D0000AD0001C38F450954095309521953F4F22
:1019E0004F4F5F4F0895F6F79095809570956195EC
:1019F0007F4F8F4F9F4F0895AA1BBB1B51E107C01C
:101A0000AA1FBB1FA617B70710F0A61BB70B881F8E
:101A1000991F5A95A9F780959095BC01CD0108951D
:0C1A2000EE0FFF1F0590F491E02D0994DB
:101A2C000A0009000600050004000300050004007C
:101A3C00030002000100010042005475726E696ED1
:101A4C00672072696768742E005475726E696E67D0
:101A5C00206C6566742E00576865656C7320737412
:101A6C007261696768742E0044697374616E636592
:101A7C0020746F20746865200066726F6E743A2053
:101A8C000072696768743A200020696E6368657338
:101A9C002E00410043757272656E74206865616436
:101AAC00696E673A200020646567726565732E0065
:101ABC0044726976696E6720696E2052657665722C
:101ACC0073652E0044726976696E6720466F727773
:101ADC006172642E0053746F7070696E672E000112
:061AEC000000A40220002E
:00000001FF
